:100000000C9434000C9451000C9451000C946D0528
:100010000C949C000C9451000C9451000C945100D1
:100020000C9451000C9451000C9451000C948A00D3
:100030000C9451000C9451000C9465000C945100E8
:100040000C9451000C9451000C9451000C945100EC
:100050000C9451000C9451000C9451000C945100DC
:100060000C9451000C94510011241FBECFEFD8E026
:10007000DEBFCDBF11E0A0E0B1E0E2E6F5E102C0F5
:1000800005900D92A03EB107D9F712E0A0EEB1E0C5
:1000900001C01D92AA34B107E1F70E94C3000C947D
:1000A000AF0A0C940000A1E8B0E02C9128602C93DA
:1000B000EFE6F0E020812260208390938900809316
:1000C00088008C9184608C9308951F920F920FB6D4
:1000D0000F9211248F939F9386B190E2892786B95E
:1000E000809133029091340201979093340280936F
:1000F00033028091330290913402892B21F485B52B
:100100008A7F85BD35989F918F910F900FBE0F907C
:100110001F9018951F920F920FB60F9211248F9374
:100120009F938BB194E089278BB99F918F910F900A
:100130000FBE0F901F9018951F920F920FB60F923F
:1001400011248F939F9331990BC01092E401109268
:10015000E30181E090E09093E6018093E5010CC01B
:1001600032990AC081E090E09093E4018093E3012A
:100170001092E6011092E5019F918F910F900FBEB2
:100180000F901F9018952F923F924F925F926F920F
:100190007F928F929F92AF92BF92CF92DF92EF9217
:1001A000FF920F931F93CF93DF930E94CA030E9485
:1001B000F3030E948D040E94150582E19AE70E94D4
:1001C00053000E948D04882321F480E091E00E9476
:1001D000A4033B9A8AB18C608AB93D9A88B1866043
:1001E00088B985B1886185B9809168008360809302
:1001F000680080916B00886180936B0080916C0037
:10020000866080936C0084B5826084BD80916E00AE
:10021000826080936E00789481E00E94B00380E059
:1002200062E00E94C0038CE091E00E94A40381E0A0
:1002300062E00E94C0038AE191E00E94A40380E191
:1002400097E220E931E0F9013197F1F70197D9F709
:1002500081E00E94B0030E945F0483B1982F83FF66
:1002600004C081E08093470202C01092470294FFCD
:1002700004C081E08093E90102C01092E9018091FD
:10028000E901882339F480914702882319F41092F8
:100290000C0217C08091E901882331F48091470254
:1002A000882311F081E00BC08091E901882331F0AF
:1002B00080914702882311F482E001C083E080939B
:1002C0000C0280910C02809310021092E8011092AF
:1002D000E70110920F0210920E02C0E0D0E0CC2491
:1002E000DD24BAEE4B2EB1E05B2EA1E1EA2EF12C1B
:1002F000F1E16F2EF2E07F2EEBEF8E2EE1E09E2EED
:1003000076E3A72E72E0B72E6DE3262E61E0362E3F
:1003100087EE91E00E94F204882369F11091E801D0
:1003200000E08091E7019801280F311D30930F0202
:1003300020930E0280910E0290910F029C0153E0D7
:10034000220F331F5A95E1F7280F391F43E03695E6
:1003500027954A95E1F7205C3E4FC9016AE070E0BD
:100360000E948907EB01C9016AE070E00E948907D9
:100370006C010E945F0484E690E00E94BE098C3309
:1003800020F0853610F48093350288EC90E00E94CE
:10039000BE098A3110F48093480281E060E00E9437
:1003A000C00380913502ADB7BEB718970FB6F89469
:1003B000BEBF0FBEADBFEDB7FEB7319612965C92D1
:1003C0004E921197F382E28227E231E03583248353
:1003D000992787FD9095978386830E94B0078DB7F4
:1003E0009EB708960FB6F8949EBF0FBE8DBFC20190
:1003F0000E94A40380E060E00E94C003ADB7BEB7D6
:100400001A970FB6F894BEBF0FBEADBFEDB7FEB7DB
:10041000319612967C926E921197F382E2822BE2D1
:1004200031E035832483D783C683D186C0860E947A
:10043000B0078DB79EB70A960FB6F8949EBF0FBE51
:100440008DBFC3010E94A40380E06CE00E94C00342
:1004500020914802ADB7BEB718970FB6F894BEBF4B
:100460000FBEADBF1196EDB7FEB792828182139693
:10047000FC92EE92129783E391E015969C938E93F3
:100480001497E22FFF27E7FDF095EE0FFF1FEE55C3
:10049000FE4F8081918117969C938E9316970E94B0
:1004A000B007ADB7BEB718960FB6F894BEBF0FBE73
:1004B000ADBFC4010E94A403809148028C303CF47B
:1004C000E7E3F1E0F093DE01E093DD0115C08091F8
:1004D00048028C305CF08091480288313CF429E37A
:1004E00031E03093DE012093DD0106C08BE391E023
:1004F0009093DE018093DD0181E06EE00E94C003F5
:10050000ADB7BEB718970FB6F894BEBF0FBEADBF5C
:10051000EDB7FEB731961296BC92AE921197F38268
:10052000E282358224828091DD019091DE01978301
:1005300086830E94B007EDB7FEB738960FB6F894E1
:10054000FEBF0FBEEDBFC5010E94A403809135021E
:10055000992787FD90958C179D079CF080918100CD
:10056000877F80938100809181008B7F80938100C1
:100570005A985B9A80E067E00E94C00380E491E0B3
:1005800022C080913502992787FD90950196C81762
:10059000D90741F080913502992787FD9095C817BA
:1005A000D907A1F4809181008860809381008091B7
:1005B00081008460809381005B9880E067E00E9406
:1005C000C00385E491E00E94A4033EC080918100B5
:1005D000877F80938100809181008B7F8093810051
:1005E0005B985A9A80E067E00E94C0038AE491E039
:1005F0000E94A403E0914802FF27E7FDF095EE0F6B
:10060000FF1FED5AFE4F80819181909334028093B9
:10061000330284B5846084BD6091330270913402EA
:1006200081E090E00E948907CB0162E070E00E94C7
:100630008907882777FD8095982F24E234EF40E0E2
:1006400050E00E946A0767BD32992FC01092D7010F
:100650001092D60181E00E94B00380E060E00E9429
:10066000C00381E192E00E94A40381E060E00E9467
:10067000C0038AEE91E00E94A40381E064E00E943E
:10068000C0038FE491E00E94A40380E06FE00E9429
:10069000C0038BEF91E00E94A40381E06EE00E9412
:1006A000C00386E392E00E94A403319931CE81E039
:1006B00090E09093D7018093D60181E00E94B0032F
:1006C00080E060E00E94C00381E192E00E94A40308
:1006D00081E060E00E94C0038AEE91E00E94A403E2
:1006E00081E06CE00E94C00381E591E00E94A403D8
:1006F00080E06FE00E94C0038BEF91E00E94A403B2
:1007000081E06EE00E94C00386E392E00E94A403B1
:10071000FFCD9BB19F709BB99BB1807F892B8BB91B
:10072000299A299A299808951F93182F289A0E9488
:100730008903812F8295807F0E94890380E49FE155
:100740000197F1F71F910895CF93DF93EC0102C059
:100750000E94940389918823D9F7DF91CF9108955E
:100760001F93182F28980E948903812F8295807FDC
:100770000E94890380E49FE10197F1F71F9108959A
:10078000882319F4862F805802C0862F80540E9437
:10079000B003089584B1836084B98AB1806F8AB947
:1007A00080E69AEE0197F1F780E30E94890380E2E8
:1007B0009EE40197F1F780E30E94890380EE91E0C7
:1007C0000197F1F780E30E94890380E20E94890388
:1007D00080E49FE10197F1F788E20E94B0038FE087
:1007E0000E94B0030895ECE7F0E080818F7780836A
:1007F000808180648083808180628083EAE7F0E08A
:100800008081846080838081826080838081816038
:100810008083808180688083089590917C00907FA0
:1008200090937C0090917C00982B90937C00809119
:100830007A00806480937A0080917A0086FDFCCFF4
:100840008091790008953B9A80E699E00197F1F74D
:100850003B988CE091E00197F1F7339B02C080E078
:100860000895339BFECF88EC90E00197F1F781E08B
:1008700008953B9A8AE08A95F1F73B9880EF90E0E3
:100880000197F1F708953B9A80EF90E00197F1F717
:100890003B988AE08A95F1F708950F931F93082FEC
:1008A00018E000FF03C00E94390402C00E94430404
:1008B000115011F00695F5CF1F910F9108950E94E8
:1008C0002304882331F08CEC0E944D0484E40E94C0
:1008D0004D0408953B9A8AE08A95F1F73B9885E3A9
:1008E0008A95F1F786B1E8ECF0E03197F1F788707E
:1008F0000895FF920F931F9388E0F82E00E011E017
:100900000E946A048111012BFA9411F0110FF8CFA3
:10091000802F1F910F91FF900895EF92FF920F93F8
:100920001F93DF93CF93CDB7DEB729970FB6F89417
:10093000DEBF0FBECDBF3B9843980E94230488239F
:1009400009F442C08CEC0E944D048EEB0E944D04D1
:100950008E010F5F1F4F9AE0E92EF12CEC0EFD1E69
:100960000E947904F80181938F01EE15FF05C1F70C
:100970000E942304882341F18CEC0E944D048EE4F4
:100980000E944D048B810E944D048C810E944D0475
:100990008FE70E944D0480E991E00197F1F70E94F2
:1009A0002304882389F08CEC0E944D0488E40E9483
:1009B0004D0488EC90E020E931E0F9013197F1F73E
:1009C0000197D9F781E001C080E029960FB6F8942D
:1009D000DEBF0FBECDBFCF91DF911F910F91FF9072
:1009E000EF9008951F93CF93DF93EC010E946A0468
:1009F0008823B9F00E942304882391F08CEC0E9494
:100A00004D048EEB0E944D040E94790488830E945D
:100A10007904898310E00E9479041F5F1730D9F7A9
:100A200081E0DF91CF911F9108953B9A8AB18C604C
:100A30008AB988B1866088B985B1886185B98091A5
:100A4000680083608093680080916B008861809368
:100A50006B0080916C00866080936C00789483B109
:100A600080930D0280910D0283FF04C081E080938A
:100A7000470202C01092470280910D0284FF04C019
:100A800081E08093E90102C01092E9018091E901BF
:100A9000882339F480914702882319F410920C02BC
:100AA00017C08091E901882331F48091470288239F
:100AB00011F081E00BC08091E901882331F0809131
:100AC0004702882311F482E001C083E080930C0286
:100AD00080910C028093100208951F920F920FB61E
:100AE0000F9211242F933F934F935F936F937F93B4
:100AF0008F939F93AF93BF93EF93FF9383B18093B3
:100B00000D0280910D0283FF04C081E080934702B3
:100B100002C01092470280910D0284FF04C081E060
:100B20008093E90102C01092E90180910C028823B0
:100B300009F049C0809147028823C9F18091E901F9
:100B40008823A9F581E0809310028091330290916F
:100B50003402019690933402809333028091D6013F
:100B60009091D701892B71F48091350284362CF451
:100B7000809135028F5F809335026091350284E663
:100B800090E013C08091D6019091D701019779F43C
:100B90008091480288312CF4809148028F5F8093C5
:100BA00048026091480288EC90E00E94C60980915A
:100BB000E901882309F470C180914702882309F074
:100BC0006BC182E029C180910C02813009F058C0CC
:100BD00080914702882309F045C08091E90188236C
:100BE00009F040C0109210028091330290913402BB
:100BF000019790933402809333028091D6019091B3
:100C0000D701892BA1F480913502843611F483E653
:100C100007C0809135028D332CF0809135028150D0
:100C2000809335026091350284E690E019C080918E
:100C3000D6019091D7010197A9F48091480288319B
:100C400011F487E107C08091480218162CF48091B6
:100C500048028150809348026091480288EC90E0FD
:100C60000E94C6098091E901882309F415C1809189
:100C70004702882309F410C183E0809310025CC00E
:100C800080910C02823009F07FC080914702882356
:100C900009F446C08091E901882309F441C083E04A
:100CA00080931002809133029091340201979093C7
:100CB0003402809333028091D6019091D701892B21
:100CC000A1F480913502843611F483E607C0809147
:100CD00035028D332CF0809135028150809335029E
:100CE0006091350284E690E019C08091D601909120
:100CF000D7010197A9F480914802883111F487E166
:100D000007C08091480218162CF480914802815047
:100D1000809348026091480288EC90E00E94C609E6
:100D20008091E901882309F0B7C0809147028823A8
:100D300009F0B2C0109210028091330290913402F7
:100D4000019690933402809333028091D601909162
:100D5000D701892B49F48091350284360CF07CC090
:100D6000809135028F5F76C08091D6019091D70136
:100D7000019709F091C08091480288310CF086C03B
:100D8000809148028F5F80C0809147028823C9F517
:100D90008091E9018823A9F182E08093100280917B
:100DA000330290913402019690933402809333027F
:100DB0008091D6019091D701892B71F480913502F1
:100DC00084362CF4809135028F5F809335026091D8
:100DD000350284E690E013C08091D6019091D7014E
:100DE000019779F48091480288312CF4809148026F
:100DF0008F5F809348026091480288EC90E00E94E7
:100E0000C6098091E901882309F046C08091470214
:100E1000882309F441C081E080931002809133025D
:100E20009091340201979093340280933302809121
:100E3000D6019091D701892BA1F480913502843697
:100E400011F483E607C0809135028D332CF0809138
:100E500035028150809335026091350284E690E03E
:100E600019C08091D6019091D7010197A9F4809182
:100E70004802883111F487E107C0809148021816B2
:100E80002CF480914802815080934802609148027E
:100E900088EC90E00E94C6099091100280910C02AB
:100EA000981739F081E08093E201809110028093DD
:100EB0000C02FF91EF91BF91AF919F918F917F9124
:100EC0006F915F914F913F912F910F900FBE0F90B7
:100ED0001F901895629FD001739FF001829FE00DD3
:100EE000F11D649FE00DF11D929FF00D839FF00DA9
:100EF000749FF00D659FF00D9927729FB00DE11D55
:100F0000F91F639FB00DE11DF91FBD01CF01112431
:100F1000089597FB092E07260AD077FD04D00CD040
:100F200006D000201AF4709561957F4F0895F6F76A
:100F3000909581959F4F0895AA1BBB1B51E107C057
:100F4000AA1FBB1FA617B70710F0A61BB70B881F59
:100F5000991F5A95A9F780959095BC01CD010895E8
:100F6000AEE0B0E0E6EBF7E00C94860A0D891E894E
:100F70008F89988D97FF02C080E090E801979E834B
:100F80008D831A83098386E08C839E01255E3F4F03
:100F9000CE010196698D7A8DA9010E94E1074D81EC
:100FA0005E8157FD0AC02F813885421753070CF424
:100FB0009A01020F131FF80110822E96E4E00C94A0
:100FC000A20AABE0B0E0E7EEF7E00C94780A3C014F
:100FD0002B015A01FC0117821682838181FD03C017
:100FE0006FEF7FEFC6C19AE0892E1E010894211C85
:100FF000311CF3012381F20123FD859123FF8191AF
:101000002F01882309F4B2C1853239F423FD85917B
:1010100023FF81912F01853229F490E0B3010E94D2
:10102000EE09E7CF982FFF24EE249924FFE1FF1566
:10103000D0F09B3269F09C3228F4903259F0933210
:1010400091F40EC09D3249F0903369F441E024C020
:1010500052E0F52A84E0F82A28C098E0F92A25C051
:10106000E0E1FE2A22C0F7FC29C0892F80538A3094
:1010700070F4F6FE05C0989C902C1124980E15C0B3
:10108000E89CE02C1124E80EF0E2FF2A0EC09E320C
:1010900029F4F6FC6BC140E4F42A07C09C3619F42D
:1010A00050E8F52A02C0983649F4F20123FD9591E3
:1010B00023FF91912F01992309F0B8CF892F8554EF
:1010C000833018F08052833038F444E050E0A40EAE
:1010D000B51E5FE359830FC0933631F0933779F033
:1010E000933509F056C020C0F5018081898342E024
:1010F00050E0A40EB51E610101E010E012C0F50140
:10110000C080D180F6FC03C06FEF7FEF02C0692D75
:1011100070E042E050E0A40EB51EC6010E94E30953
:101120008C015FE7F52214C0F501C080D180F6FC88
:1011300003C06FEF7FEF02C0692D70E042E050E026
:10114000A40EB51EC6010E94D8098C0150E8F52AEC
:10115000F3FE07C01AC080E290E0B3010E94EE09DE
:10116000EA948E2D90E008171907A8F30EC0F60137
:10117000F7FC8591F7FE81916F0190E0B3010E9429
:10118000EE09E110EA94015010400115110579F7BC
:10119000EAC0943611F0993669F5F7FE08C0F501FA
:1011A000208131814281538184E090E00AC0F501C1
:1011B000808191819C01442737FD4095542F82E026
:1011C00090E0A80EB91E9FE6F92257FF09C050957E
:1011D0004095309521953F4F4F4F5F4FE0E8FE2AF5
:1011E000CA01B901A1012AE030E00E941A0AD82EF2
:1011F000D21840C0953729F41F2D1F7E2AE030E019
:101200001DC01F2D197F9F3661F0903720F498354F
:1012100009F0ACC00FC0903739F0983709F0A6C07C
:1012200004C028E030E00AC0106114FD146020E121
:1012300030E004C014FD166020E132E017FF08C062
:10124000F501608171818281938144E050E008C0A2
:10125000F50180819181BC0180E090E042E050E0A6
:10126000A40EB51EA1010E941A0AD82ED2188FE72B
:10127000F82EF122F6FE0BC05EEFF522D91438F4F9
:10128000F4FE07C0F2FC05C08FEEF82202C01D2D4F
:1012900001C0192DF4FE0DC0FE01ED0DF11D808180
:1012A000803319F499EEF92208C01F5FF2FE05C0E1
:1012B00003C08F2D867809F01F5F0F2DF3FC14C03B
:1012C000F0FE0FC01E1510F09D2C0BC09D2C9E0C27
:1012D000911A1E2D06C080E290E0B3010E94EE0933
:1012E0001F5F1E15C0F304C01E1510F4E11A01C0E3
:1012F000EE2404FF0FC080E390E0B3010E94EE09EA
:1013000002FF1DC001FD03C088E790E00EC088E524
:1013100090E00BC0802F867891F001FF02C08BE235
:1013200001C080E2F7FC8DE290E0B3010E94EE097B
:1013300006C080E390E0B3010E94EE099A94D914AC
:10134000C0F3DA94F101ED0DF11D808190E0B3015D
:101350000E94EE09DD20A9F706C080E290E0B3010B
:101360000E94EE09EA94EE20C1F743CEF3016681B4
:101370007781CB012B96E2E10C94940AF999FECF88
:1013800092BD81BDF89A992780B50895262FF999C5
:10139000FECF92BD81BDF89A019700B4021639F0D4
:1013A0001FBA20BD0FB6F894FA9AF99A0FBE0895A5
:1013B000FC010590615070400110D8F78095909520
:1013C0008E0F9F1F0895FC01615070400190011025
:1013D000D8F7809590958E0F9F1F08950F931F93B8
:1013E000CF93DF938C01EB018B8181FF1BC082FFC8
:1013F0000DC02E813F818C819D812817390764F4AF
:10140000E881F9810193F983E88306C0E885F985CD
:10141000802F0995892B31F48E819F8101969F83BE
:101420008E8302C00FEF1FEFC801DF91CF911F9194
:101430000F910895FA01AA27283051F1203181F146
:10144000E8946F936E7F6E5F7F4F8F4F9F4FAF4FCC
:10145000B1E03ED0B4E03CD0670F781F891F9A1FDF
:10146000A11D680F791F8A1F911DA11D6A0F711D93
:10147000811D911DA11D20D009F468943F912AE09F
:10148000269F11243019305D3193DEF6CF01089587
:10149000462F4770405D4193B3E00FD0C9F7F6CFB8
:1014A000462F4F70405D4A3318F0495D31FD405280
:1014B000419302D0A9F7EACFB4E0A6959795879516
:1014C00077956795BA95C9F70097610571050895F5
:1014D0009B01AC010A2E06945795479537952795A1
:1014E000BA95C9F7620F731F841F951FA01D089539
:1014F0002F923F924F925F926F927F928F929F9224
:10150000AF92BF92CF92DF92EF92FF920F931F9311
:10151000CF93DF93CDB7DEB7CA1BDB0B0FB6F894C2
:10152000DEBF0FBECDBF09942A88398848885F8402
:101530006E847D848C849B84AA84B984C884DF8073
:10154000EE80FD800C811B81AA81B981CE0FD11D57
:101550000FB6F894DEBF0FBECDBFED010895F8942D
:02156000FFCFBB
:1015620053656E736F72204661696C004545313078
:10157200392050726F6A65637400496D7469617ACB
:1015820020556464696E00253364002532642E257B
:1015920031640025337300330034003500257300B5
:1015A2004F4B2020005741524D00484F5420003CE1
:1015B200003E0083008B0093009C00A500B000B9A0
:1015C20000C400D000DC00E900F700060115012686
:1015D2000137014A015D01720188019F01B801D200
:1015E20001EE010B02430043230044004423004563
:1015F20000460046230047004723004100412300E4
:101602004200850187018A018C018F0191019301BA
:10161200960198019B019D01A001850187018A0124
:101622008C018F0191019301960198019B019D010B
:10163200A00185013C6402004F4B00D80137010034
:00000001FF
